:020000040800F2
:100000008005002001010008831B000889170008F3
:10001000811B00080F020008C12200080000000038
:10002000000000000000000000000000BD1C0008EF
:100030007D02000800000000851B0008BF1C0008AE
:100040001B0100081B0100081B0100081B01000820
:100050001B0100081B0100081B0100081B01000810
:100060001B0100081B0100081B0100081B01000800
:100070001B0100081B0100081B0100081B010008F0
:100080001B0100081B0100081B0100081B010008E0
:100090001B0100081B0100081B0100081B010008D0
:1000A0001B0100081B0100081B0100081B010008C0
:1000B0001B0100081B0100081B0100081B010008B0
:1000C0001B0100081B0100081B0100081B010008A0
:1000D0001B0100081B0100081B0100081B01000890
:1000E0001B0100081B0100081B010008DFF80CD0F1
:1000F00000F06CF8004800479D28000880050020AB
:100100000648804706480047FEE7FEE7FEE7FEE7B1
:10011000FEE7FEE7FEE7FEE7FEE7FEE7011D00085B
:10012000ED000008202A04DB203A21FA02F0002129
:10013000704721FA02F3D040C2F1200291400843F7
:1001400019467047D2B201E000F8012B491EFBD2DC
:1001500070470022F6E710B513460A4604461946D2
:10016000FFF7F0FF204610BD2DE9F05F05460020A7
:1001700092469B4688460646814640241BE0284618
:10018000414647462246FFF7CDFF53465A46C01A1E
:10019000914110D311461846224600F029F82D1A35
:1001A00067EB01084F4622460120002100F020F8AD
:1001B00017EB00094E41201EA4F10104DFDC484684
:1001C00031462A464346BDE8F09F0000064C074DE5
:1001D00006E0E06840F0010394E807009847103417
:1001E000AC42F6D3FFF786FF882B0008A82B000847
:1001F000202A04DB203A00FA02F1002070479140E7
:10020000C2F1200320FA03F3194390407047FEE740
:1002100070B50C4D00244FF480660122314628460B
:1002200000F04DF9C82000F043F80022314628467E
:1002300000F045F9C82000F03BF8641C032CECDB0F
:1002400070BD0000000C014070B501220A4D9402FF
:100250002146284600F033F94FF4FA76304600F094
:1002600027F800222146284600F029F93046BDE84B
:10027000704000F01DB80000000C01407047000005
:1002800010B54021034800F015F908B1002010BD59
:10029000012010BD0008014010B54021034800F0C6
:1002A00009F9012800D0002010BD0000000801401D
:1002B00070B5044600F008F90546601C02D00448F9
:1002C0000078044400F000F9401BA042FAD370BD4E
:1002D000180000202DE9F84FDFF8B891002409F14B
:1002E000040A0AF1040B23460F270BF1040EC9E0A0
:1002F0000125A5402A40AA427DD1674ED1F804C00D
:10030000ACEB0608B44532D014DCBCF1030F3AD094
:1003100009DCBCF1000F2AD0BCF1010F1CD0BCF1EC
:10032000020F31D11DE0BCF1110F17D0BCF1120F3B
:100330002AD119E0B8F5881F19D006DCB8F5803F3E
:1003400015D0B8F5801F1FD111E0B8F5001F0ED0F1
:10035000B8F5041F18D10AE0CB6815E0CB681B1D67
:1003600012E0CB6808330FE0CB680C330CE08B68ED
:100370002BB1012B4FF0080303D0456104E00423A7
:1003800002E0056100E00023FF2A01D8064601E0F3
:1003900000F104064FEA840501D9A5F12005D6F83D
:1003A000008007FA05FC28EA0C0803FA05F548EA7C
:1003B0000508C6F800804D68ED0062D5374DAE697E
:1003C00046F00106AE61AD6924F0030605F00105B3
:1003D0000095334D06EB050CDCF80850A607360FE8
:1003E00007FA06F825EA0805DFF8B880404503D18A
:1003F0004FF0000817E044E0DFF8AC80404502D140
:100400004FF001080FE0DFF8A480404502D14FF023
:10041000020808E0DFF89880404502D14FF0030859
:1004200001E04FF0040808FA06F848EA0508CCF89D
:1004300008804D68D9F80060ED034D4601D516439C
:1004400000E096432E604D68DAF80060AD03554633
:1004500001D5164300E096432E604D68DBF800603E
:10046000ED025D4601D5164300E096432E604D68CF
:10047000DEF80060AD02754601D5164300E09643F4
:100480002E60641C0D682A46E5407FF431AFBDE85C
:10049000F88F00000004014000001110001002401D
:1004A0000000014000080140000C01400010014024
:1004B000001401408068084000D0012070470AB154
:1004C000016170470904FBE701488068704700003C
:1004D0001800002070B5040025D094F83D000025D8
:1004E00020B984F83C50204600F04EF9242084F8CE
:1004F0003D002068016821F0010101602068016869
:1005000041F4004101602068016821F4004101606C
:1005100000F088FA4D4A6168914201D84C4900E0E8
:100520004C49884201D2012070BD4B492368B0FB81
:10053000F1F15E6826F03F060E435E606368934209
:1005400006D94FF4967359434FF47A73B1FBF3F124
:100550002368491C1E6A26F03F0631431962616810
:10056000914210D84900401EB0FBF1F2521CC2F378
:100570000B02042A01D2042022E0B0FBF1F0401C5F
:10058000C0F30B001CE0A268F2B301EBC10303EB64
:100590000116431EB3FBF6F35B1C43F480431B05BB
:1005A00049D092B301EBC10202EB0111401EB0FB36
:1005B000F1F0401CC0F30B0040F4804040F40040D8
:1005C0002168CA694CF6FF739A431043C861D4E9A5
:1005D000071001432068026822F0C0021143016045
:1005E000D4E9030101432068826848F2FF339A434B
:1005F00011438160D4E9050108432168CA6822F0EB
:10060000FF021043C86001E00EE016E020680168B8
:1006100041F0010101602564202084F83D0025633C
:1006200084F83E50002070BD01EB4106431EB3FB31
:10063000F6F35B1CB3E70120C2E701EB4101401E6A
:10064000B0FBF1F0401CC0F30B00B7E7A08601003F
:1006500080841E0000093D0040420F002DE9F84F44
:100660001F4690468A460446DDF82890FFF72CFF87
:10067000054694F83D0020287FD1192301224049E6
:100680002046009501F00CF9002876D194F83C0042
:10069000012872D0012084F83C0020680168C90755
:1006A00003D1016841F0010101602068016821F473
:1006B00000610160212084F83D00102084F83E0094
:1006C00000262664C4F824806785608D20852D4827
:1006D000E0622B464A465146204601F06DF890B93B
:1006E000206841698069009036E02A4649462046E4
:1006F00001F055F950B1206C042804D1206801683C
:1007000041F4007101600120BDE8F88F606A216842
:1007100000780861606A401C6062618D491E6185D5
:10072000218D491E89B2218522685369DB435B070D
:100730000BD451B100781061606A401C6062608D1A
:10074000401E6085208D401E20852A464946204651
:1007500001F080F80028CED1208D0028C5D154F8B2
:100760003D0B016841F400710160202004F81E096E
:10077000E67766770020C7E7FFE70220C4E70000BE
:10078000020010000000FFFF10B586B000210091AC
:1007900001910291039100680F4988421AD10F4CD0
:1007A000A06940F00800A061A069694600F0080057
:1007B0000490C0200090122001900320039008486C
:1007C000FFF788FDE06940F40010E061E06900F4A3
:1007D0000010049006B010BD00540040001002400C
:1007E000000C014002488168027811448160704722
:1007F00018000020074810B5016841F010010160A1
:10080000032000F067F8002000F006F800F024F85C
:10081000002010BD0020024070B50D4D04464FF47D
:100820007A712878B1FBF0F00A490968B1FBF0F061
:1008300000F0B3FD48B9102C07D200222146501E0B
:1008400000F028F800206C6070BD012070BD000031
:1008500018000020240000200C4808B5816941F0F0
:1008600001018161816901F001010091C16941F0DB
:100870008051C161C06900F0805000900448416817
:1008800021F0E06141F00071416008BD00100240BC
:1008900000000140F0B40E4B1B680C46C3F302236A
:1008A000C3F10705042D00D90425191D072901D21C
:1008B000002300E0DB1E012606FA05F1491E214057
:1008C00099409E40761E16403143F0BC01F00EBDAB
:1008D0000CED00E0064900F0070208684FF6FF0340
:1008E000184040EA0220034A1043086070470000A5
:1008F0000CED00E00000FA052DE9F0470F46050079
:1009000061D0434E306800F00700B84209D2306829
:1009100020F0070038433060306800F00700B8422C
:1009200051D128683B4C810712D5400703D5606838
:1009300040F4E06060602878000703D5606840F408
:10094000605060606068A96820F0F0000843606053
:100950002878C00728D06868012810D021680228AC
:1009600010D0890700292EDA616821F003010143C4
:100970006160FFF7A9FD804641F288390DE02168EA
:100980008903EFE78901EDE7FFF79EFDA0EB080182
:10099000494502D90320BDE8F0876068696800F026
:1009A0000C00B0EB810FEFD1306800F00700B842C7
:1009B0000BD9306820F0070038433060306800F011
:1009C0000700B84201D00120E5E72878400705D5A7
:1009D0006068E96820F4E0600843606028780007F8
:1009E00006D56068296920F4605040EAC100606063
:1009F00000F028F86168084AC1F30311515CC8404F
:100A00000649086006480068FFF706FF0020C2E7B5
:100A10000020024000100240702B0008240000203B
:100A20001C0000200448054900684968044AC1F3D5
:100A30000221515CC8407047240000200010024091
:100A4000802B000812A185B00FC98DE80F0014A0FB
:100A5000144A006804905168134801F00C03042BF9
:100A600010D0082B0ED1C1F38343C9031DF8030036
:100A70000AD5516804AAC1F34041515C0A4A504367
:100A8000B0FBF1F005B0704708494843FAE70000B1
:100A900002030405060708090A0B0C0D0E0F1010BF
:100AA000010200000010024000127A0000093D001F
:100AB0002DE9F84F040070D02078C04DC00749D010
:100AC0006868C0F38100012807D06868C0F381001E
:100AD000022809D16868C00306D52868800339D583
:100AE00060680028E7D035E06068B0F5803F0BD043
:100AF00010B1B0F5A02F11D0286820F48030286004
:100B0000286820F4802002E0286840F480302860C3
:100B1000606890B1FFF7D8FC06460AE0286840F408
:100B200080202860F0E700BFFFF7CEFC801B642820
:100B300073D828688003F7D50CE0FFF7C5FC06469C
:100B400005E000BFFFF7C0FC801B6428F0D82868D0
:100B50008003F7D420789A4E80074FF001094FF0B8
:100B6000000839D5686810F00C0F07D06868C0F32A
:100B70008100022809D16868C00306D4286880076C
:100B800014D52069012808D110E02069B0B1C6F859
:100B90000090FFF799FC074605E00AE1FFF794FC97
:100BA000C01B0228C4D828688007F7D52868616967
:100BB00020F0F80040EAC10028600DE0C6F800808F
:100BC000FFF782FC074604E0FFF77EFCC01B02280B
:100BD00023D828688007F7D4207800072CD57948D7
:100BE000A169D9B1C0F80090FFF76EFC074604E098
:100BF000FFF76AFCC01B02280FD8686A8007F7D588
:100C000071484FF4FA510068B0FBF1F0009000BF5A
:100C10000098411E0091FAD20EE080E0C0F80080FA
:100C2000FFF752FC074604E0FFF74EFCC01B02280A
:100C300075D8686A8007F7D42078400760D5E869DE
:100C40000027C00008D4E86940F08050E861E869F6
:100C5000012700F0805000905C480168C90513D45A
:100C60000168834641F480710160FFF72DFC8246E4
:100C700006E000BFFFF728FCA0EB0A0064284ED86E
:100C8000DBF80000C005F5D5E06801280AD008B1FE
:100C9000052813D0286A20F001002862286A20F075
:100CA000040002E0286A40F001002862E06841F296
:100CB000883B98B1FFF708FC82460BE0286A40F0B9
:100CC00004002862EEE700BFFFF7FEFBA0EB0A017D
:100CD00059455AD8286A8007F6D50CE0FFF7F4FB8F
:100CE000824605E0FFF7F0FBA0EB0A0159454CD81E
:100CF000286A8007F6D41FB1E86920F08050E861C7
:100D0000E06988B36968C1F38101022944D00228EF
:100D1000C6F8608004D0FFF7D7FB044638E034E023
:100D2000FFF7D2FB074604E0FFF7CEFBC01B02280B
:100D30002BD828688001F7D4206AB0F5803F05D110
:100D40006868A16820F4003008436860D4E90801AD
:100D50000843696821F4741108436860C6F860901C
:100D6000FFF7B2FB044606E025E000BFFFF7ACFB4F
:100D7000001B022809D828688001F7D51BE000BFB6
:100D8000FFF7A2FB001B022802D90320BDE8F88F61
:100D900028688001F4D40EE00128F7D06868226A40
:100DA00000F48031914204D1616A00F470108842ED
:100DB00001D00120EAE70020E8E70000001002402F
:100DC00000004242800442422400002000700040A3
:100DD00070B5040009D0606A002540B125616561E5
:100DE000A56294F8510040B10CE0012070BD60682C
:100DF000B0F5827FF4D0E561F2E784F850502046E8
:100E000000F040F8022084F851002068016821F0C9
:100E100040010160A088218900F4827001F404413E
:100E20000843A18901F400610843217C01F002011B
:100E30000843217D01F001010843218B01F4007179
:100E40000843217F01F03801084394F8201001F095
:100E500080010843218D01F4005108432168086096
:100E6000A069042101EA1040216848602068C16936
:100E700021F40061C1616565012084F85100002002
:100E800070BD000030B585B0002400940194029438
:100E9000039400681549884225D11548C16941F479
:100EA0008041C161C16901F480410491816941F0CF
:100EB0000801816180690F4D00F0080004904FF433
:100EC00020400090022001900320039069462846AC
:100ED000FFF700FA4FF48040CDE900046946284648
:100EE0000294FFF7F7F905B030BD0000003800406C
:100EF00000100240000C01402DE9F84F0446406804
:100F00000025984616460F464FF0040BB0F5827F39
:100F100001D1A06888B194F85000012818D00120B0
:100F200084F85000FFF7D0FA814694F851004FF052
:100F3000000A01280ED0022582E084F851B0134641
:100F40000A462046CDF8008000F036F9BDE8F88F5B
:100F50000220FBE7002F72D0002E70D084F851B031
:100F6000C4F854A0A763A687E687C4F830A0A4F805
:100F700034A0A4F836A0C4F840A0C4F844A0A068E7
:100F8000B0F5004F09D12068016821F040010160EF
:100F90002068016821F480410160206801684906E9
:100FA00003D4016841F040010160E068D8B139E044
:100FB00020688168C90709D0007BA16B0870A06B0D
:100FC000401CA063E08F401EE0870CE0FFF77CFA36
:100FD000A0EB0901414503D3B8F1FF3F03D036E050
:100FE000B8F1000F33D0E08F0028E1D11DE0206878
:100FF0008168C90709D0C068A16B0880A06B801CFC
:10100000A063E08F401EE0870CE0FFF75DFAA0EBE5
:101010000901414503D3B8F1FF3F03D017E0B8F110
:10102000000F14D0E08F0028E1D14A464146204607
:1010300000F0A9FD08B120206065606D00B10125B8
:10104000012084F8510084F850A028467EE703254B
:10105000F6E72DE9F84F044690F8500000271D46AA
:101060001646894601280DD04FF0010B84F850B088
:10107000FFF72AFA804694F85100BA46012804D0B6
:10108000022793E00220BDE8F88FB9F1000F73D07A
:10109000002E71D0032084F85100C4F854A0C4F885
:1010A0003090A686E686C4F838A0A4F83CA0A4F840
:1010B0003EA0C4F844A0C4F840A0A068B0F5004F1A
:1010C00009D12068016821F04001016020680168B1
:1010D00041F48041016020680168490603D4016839
:1010E00041F040010160E068B0F5006F606803D036
:1010F00030B3012E24D041E008B1012E1CD1206B69
:1011000021680088C86006E020688168890709D5E1
:10111000216B0988C160206B801C2063E08E401E1B
:10112000E08609E0FFF7D0F9A0EB0800A84202D35F
:10113000681C01D031E07DB3E08E0028E4D120E0CE
:10114000206B21680078087306E0206881688907B1
:1011500009D5216B09780173206B401C2063E08E58
:10116000401EE0860AE0FFF7AFF9A0EB0800A842B6
:1011700003D3681C02D010E017E06DB1E08E0028A8
:10118000E3D142462946204600F02BFD08B120203D
:101190006065A06818B106E0FFE7032706E0206855
:1011A000C16880680090606D00B1012784F851B07B
:1011B00084F850A0384666E72DE9F84F044690F8C9
:1011C000500000270A9E1D4692468B464FF00109AB
:1011D00001280ED0012084F85000FFF775F98046F1
:1011E00094F85100616801280CD0B1F5827F07D1D5
:1011F00002E00220BDE8F88FA16809B9042801D0F7
:101200000227C2E0BBF1000F27D0BAF1000F24D0B3
:101210001DB394F85100042802D0052084F8510031
:1012200000206065C4F838A0E587A587C4F830B011
:10123000E586A5862064606420680168490603D4B9
:10124000016841F040010160E068B0F5006F60683E
:1012500005D0E8B3012D46D07FE0012795E008B125
:10126000012D39D1206B21680088C860206B801C5B
:101270002063E08E401EE0862EE0206881688907AA
:101280000FD5E18E69B1B9F1010F0AD1216B09883F
:10129000C160206B801C2063E08E401EE0864FF012
:1012A000000920688168C9070CD0E18F51B1C0687E
:1012B000A16B0880A06B801CA063E08F401EE087BC
:1012C0004FF00109FFF700F9A0EB0800B04200E081
:1012D00009E001D3701C50D1E08E0028CDD1E08F01
:1012E0000028CAD13FE0206B216800780873206B8A
:1012F000401C2063E08E401EE0862EE0206881685E
:1013000089070FD5E18E69B1B9F1010F0AD1216BBF
:1013100009780173206B401C2063E08E401EE0863C
:101320004FF0000920688168C9070CD0E18F51B1E6
:10133000C068A16B0870A06B401CA063E08F401ECA
:10134000E0874FF00109FFF7BFF8A0EB0800B042BB
:1013500002D3701C01D010E07EB1E08E0028CDD108
:10136000E08F0028CAD142463146204600F039FCC1
:1013700028B101272020606507E0032705E0A06869
:1013800018B92068C16880680090012084F8510075
:10139000002084F8500038462CE710B5401EB0F10C
:1013A000807F01D3012010BD4FF0E02460610F2148
:1013B000601700F09BFF0020A06107202061002043
:1013C00010BD000070B590F83C20012A26D0012401
:1013D00080F83C40022280F83D2003685A689D68EE
:1013E00022F070060A6832435A600D4B02689A4236
:1013F00008D0B2F1804F05D00A4B9A4202D00A4B76
:101400009A4204D1496825F080031943916080F81D
:101410003D40002180F83C10084670BD022070BDA0
:10142000002C0140000400400008004010B50400FA
:1014300003D094F83D0010B107E0012010BD00205A
:1014400084F83C00204600F01FF8022084F83D009C
:10145000211D206800F056FC012084F8460084F825
:101460003E0084F83F0084F8400084F8410084F88E
:10147000420084F8430084F8440084F8450084F86E
:101480003D00002010BD000008B50068B0F1804F9D
:1014900008D10548C16941F00101C161C06900F08E
:1014A0000100009008BD00000010024070B5044625
:1014B00090F83C00012817D0012584F83C50022008
:1014C00084F83D002068826822F0770222F47F428F
:1014D00082600868502830D00DDC20284DD005DC13
:1014E00098B310283BD148E0022070BD302844D08A
:1014F000402834D139E0602828D0702806D0B0F5D3
:10150000805F2CD0B0F5005F29D10AE0CB68D1E92B
:101510000121206800F039FC2068816841F07701E2
:1015200009E0CB68D1E90121206800F02EFC206899
:10153000816841F48041816011E0CA68496820688F
:1015400000F0D8FC5021206807E016E0CA6849681E
:10155000206800F0E0FC6021206800F020FC84F8A6
:101560003D50002084F83C0070BDCA68496820687E
:1015700000F0C0FC40212068EFE7226801461046D9
:10158000EBE7000000B585B00021009101910291C8
:1015900003910068B0F1804F10D10948816941F092
:1015A000040181618069694600F004000490022012
:1015B0000090019003900348FEF78CFE05B000BD3B
:1015C000001002400008014070B5044690F83C004D
:1015D0000D4601280AD0012084F83C0042B1042ABB
:1015E00018D0082A2AD00C2A4DD139E0022070BD2B
:1015F000206800F0DDFB2068816941F0080181610D
:101600002068816921F004018161206881692A696B
:10161000114311E0206800F0F3FB2068816941F478
:10162000006181612068816921F4806181612068A5
:1016300081692A6941EA0221816124E0206800F081
:101640000BFC2068C16941F00801C1612068C169D3
:1016500021F00401C1612068C1692A69114311E0C8
:10166000206800F025FC2068C16941F40061C16177
:101670002068C16921F48061C1612068C1692A695B
:1016800041EA0221C161002084F83C0070BD10B520
:10169000040003D094F83D0010B107E0012010BD14
:1016A000002084F83C00204600F01EF8022084F858
:1016B0003D00211D206800F025FB012084F8460034
:1016C00084F83E0084F83F0084F8400084F841002C
:1016D00084F8420084F8430084F8440084F845000C
:1016E00084F83D00002010BD7047000010B504468E
:1016F000022249B104290ED0082913D094F84100E0
:10170000012816D0012010BD94F83E000128F9D11F
:1017100084F83E200FE094F83F000128F2D184F8CD
:101720003F2008E094F840000128EBD184F84020E5
:1017300001E084F841200122206800F019FB0F49E4
:101740002068884203D1426C42F40042426420681F
:10175000884208D0B0F1804F05D00949884202D0B4
:101760000849884204D1816801F00701062903D0A5
:10177000016841F001010160002010BD002C014012
:101780000004004000080040FEE701684A69D243B7
:1017900052050FD46FF480624A61002140F8301F77
:1017A000202242738173026942F0040202610173D4
:1017B0000120704700207047F8B50446C06A1E46F5
:1017C0000D461746082807D0012805D010F5803FA0
:1017D00002D0206B122804D12068016841F4807186
:1017E0000160134600224FF001112046009600F0E0
:1017F00057F840B120680068C00502D54FF400706A
:1018000020640320F8BD2069B0F5804F0ED006207B
:10181000216800EAD51040F0F000086133463A46EE
:101820000B49204600F070F878B902E005F0FE00A0
:1018300000E0E8B221680861054933463A46891F4D
:10184000204600F061F80028DCD00120F8BD00003F
:101850000800010070B516460D4604460DE020460E
:10186000FFF793FF08B1012070BD681C05D0FEF79B
:101870002BFE801BA84207D835B120684069C043C1
:101880004007ECD4002070BD002044F8300F202128
:101890006173A073216941F0200121612073E2E7A7
:1018A0002DE9F0471E4690460D460446C1F3074712
:1018B000DDF8209008E0701C06D0FEF705FEA0EBD6
:1018C0000900B0420FD876B12068012F18D0806986
:1018D00025EA00000004000C14D000214145EAD0A4
:1018E0000020BDE8F087002044F8300F202161730C
:1018F000A073216941F02001216120730120F0E7EC
:101900004069E5E70121E9E72DE9F0479A4691466C
:101910000E46044600254FF02008C1F3074725E096
:1019200020684069C043400514D42068016841F430
:101930000071016021686FF480604861256384F85C
:101940003D8084F83E50206C40F00400206484F810
:101950003C501FE0B9F1FF3F08D0FEF7B5FDA0EB0A
:101960000A0149450CD8B9F1000F09D02068012FB0
:1019700013D0806926EA00000004000C0BD0CFE7EA
:1019800044F8305F84F80D80A573206940F0200092
:10199000206125730120BDE8F0874069EAE770B552
:1019A00016460D4604460DE02046FFF7EEFE08B150
:1019B000012070BD681C05D0FEF786FD801BA84283
:1019C00007D835B120684069C0430006ECD4002038
:1019D00070BD002044F8300F20216173A07321698D
:1019E00041F0200121612073E2E70000F0B585B0ED
:1019F000002533480095019502950395816941F0D2
:101A000010018161816901F010010491816941F047
:101A100020018161816901F020010491816941F017
:101A200004018161816901F004010491816941F03F
:101A3000080181618069234E00F008004FF40054D2
:101A40000490002221463046FEF739FD1E4F002249
:101A5000E1103846FEF733FD01224FF4C0513846FD
:101A6000FEF72DFD00940124CDE90145694630467D
:101A70000394FEF72FFC4020CDE90005694602944F
:101A80001248FEF727FC4FF440608DE831006946AC
:101A900038460394FEF71EFC20038DE83100032036
:101AA000039069463846FEF715FC2020CDE9000575
:101AB000694602943846FEF70DFC05B0F0BD000003
:101AC0000010024000100140000C014000080140DD
:101AD0000C480B494FF4007201604FF48271416071
:101AE00000218160C1600161C0E905121822C0E9CE
:101AF0000721416281620A21C162FFF769B90000D2
:101B000000380040E000002010B58EB0002407949B
:101B1000089409940A940B941C2168460C94FEF7CF
:101B200018FB16484FF08041016040F21F31C0E9B8
:101B30000114C821C0E903148461FFF777FC4FF456
:101B40008050079007A90D48FFF7B0FC0B48FFF73E
:101B50009EFD0B940BA909480C94FFF733FC602001
:101B6000CDE9000402940422694604480494FFF776
:101B70002BFD0248FFF706FD0EB010BD3801002016
:101B8000FEE770477047F8B5044640684FF482732B
:101B9000984217D1A0684FF48065B0F5004F01D08E
:101BA000A8420FD12068066826F0400606606068EB
:101BB000984207D1A068A84204D100920B460022A7
:101BC000012103E000920B4600228021204600F014
:101BD00019F8002804D0606D40F0200060650320F3
:101BE000F8BD38B50B46009204460022802100F073
:101BF00009F8002804D0606D40F0200060650320E3
:101C000038BD00002DE9F8431E469146884604463B
:101C1000089DFEF759FC401B351AFEF755FC074698
:101C200025480068C0F3CB30684338E0701C37D0DB
:101C3000FEF74AFCC01BA84203D215B1009860B35E
:101C40002CE02068416821F0E00141606068B0F557
:101C5000827F0BD1A068B0F5004F02D0B0F5806F45
:101C600004D12068016821F040010160A06AB0F54C
:101C7000005F09D12068016821F4005101602068EB
:101C8000016841F400510160012084F851000020F6
:101C900084F850000320BDE8F8830025401E009022
:101CA0002068816838EA010004D000214945BDD18F
:101CB0000020F0E70121F9E7240000207047FEF73B
:101CC00091BD30B58FB028216846FEF742FA142145
:101CD0000AA8FEF73EFA01252804CDE900500024A9
:101CE00007946846FEF7E4FE0F200A90CDE90B54F6
:101CF0000D9400210AA80E94FEF7FEFD0FB030BD32
:101D000070470000F0B50268164B174C174D4FF0A6
:101D10008047984205D0B84203D0A04201D0A842E3
:101D200003D122F070064A683243984205D0B84287
:101D300003D0A04201D0A84203D122F44074CA6863
:101D400022434C6922F08002224302608A68C26208
:101D50000A688262984201D10969016301214161E7
:101D6000F0BD0000002C01400004004000080040CD
:101D700010B501F01F030121046A99408C430462ED
:101D8000016A9A401143016210BD10B5846842EAAD
:101D9000032224F47F440A432243826010BD8268F8
:101DA00022F070020A4342F0070181607047000090
:101DB00030B5026A22F001020262026A4368846955
:101DC00024F073050C682C4322F002058A682A432C
:101DD0000A4DA8420BD122F00805CA6823F44073CB
:101DE0002A434D6922F004021D438B692B43436053
:101DF000846149684163026230BD0000002C0140EB
:101E000030B5026A22F010020262026A43688469F5
:101E10000D6824F4E64444EA05248D6822F020028B
:101E200042EA05120B4DA8420ED1CD6822F0800285
:101E300042EA05124D6923F4406343EA85038D6944
:101E400022F0400243EA850343608461496881636C
:101E5000026230BD002C014030B5026A22F480726B
:101E60000262036A4268C46923F4007324F07305B4
:101E70000C682C438D6843EA05230C4DA8420ED113
:101E8000CD6823F4006343EA05234D6922F44052F0
:101E900042EA05128D6923F4806342EA051242602A
:101EA000C4614968C163036230BD0000002C014079
:101EB00030B5026A22F480520262046A4268C36941
:101EC0000D6823F4E64343EA05238D6824F40054A7
:101ED00044EA0534064DA84204D14D6922F48042FB
:101EE00042EA85124260C36149680164046230BD00
:101EF000002C014010B5036A046A24F00104046256
:101F0000846924F0F00444EA021423F00A020A432C
:101F10008461026210BD10B5036A23F010030362EE
:101F20008369046A23F4704343EA023224F0A00375
:101F300043EA01118261016210BD10B5142000F066
:101F4000BBF8800705D10321BDE81040142000F044
:101F5000F8B810BD7CB50446002529460D2000F0D8
:101F600087F9932020702020607001A823460090FC
:101F7000022219460C2000F0F0F8010009D1225C81
:101F8000401C5540C0B20428F9D3205CA84200D0C0
:101F9000022108467CBD2DE9F0410E460746154654
:101FA0000421052000F036F880210A2000F0C9F84D
:101FB000002405E0395D092000F05AF9641CE4B200
:101FC000B442F7D30321012000F052F9FF24052089
:101FD00000F072F8641E14F0FF0401D04007F6D53B
:101FE000222000F069F82870212000F065F8687060
:101FF000BDE8F08170B505460146262000F086F860
:10200000040003D12846FFF7A5FF044600F00EF8B0
:10201000204670BD70B50C46054600F04DF820EA2C
:1020200004012846BDE8704000F022B90EB55020EA
:102030008DF8040000208DF805000DF10602022144
:1020400001A8FFF7A8FF02A801AB009004221946DF
:102050000C2000F082F80EBD10B5164C01221103C1
:102060002046FEF72CFA0122D1022046FEF727FA7D
:1020700000F063F88D212A2000F0FAF83E212B2091
:1020800000F0F6F81E212D2000F0F2F800212C209F
:1020900000F0EEF87021262000F0EAF8402115202B
:1020A00000F0E6F83D21112000F0E2F8BDE8104014
:1020B000FFF743BF000C01407CB57E2101EA4000E0
:1020C00040F080000F4D8DF804004FF48054002242
:1020D00021462846FEF7F3F94FF4FA7633460122FB
:1020E00001A90948FEF7B5FF3346012269460648B3
:1020F000FEF702FF012221462846FEF7E0F99DF88F
:1021000000007CBD000C0140E00000207CB50C46C6
:10211000054607210D2000F0ABF8257001A82346E5
:102120000090012219460C2000F017F818B9BDF8EC
:102130000410102900D002207CBD0F21012000F0E6
:1021400097B870B50C460546FFF7B6FF40EA0401A4
:102150002846BDE8704000F08BB82DE9FF5F0027EE
:102160000226DDF838A015468B468146B8460C2875
:1021700005D0B9F10E0F05D11227102001E0772705
:102180003020804647F08001022000F071F8802165
:102190000420FFF73FFF80210A20FFF7D2FF002134
:1021A000012000F065F8002406E01BF80410092067
:1021B00000F05EF8641CA4B2AC42F6D3494601209C
:1021C00000F056F8B9F10C0F03D180210D20FFF774
:1021D000B8FF4FF4FA650420FFF76EFF6D1E2D0463
:1021E00004462D0C04D0E00702D114EA080FF2D007
:1021F00080210D20FFF70EFF35B10620FFF75CFFB1
:1022000010F01B0F04D0022604B03046BDE8F09F4A
:1022100000263C40E00700D00126B9F10C0FF3D1B5
:102220000A20FFF749FF04460C20FFF745FF10F096
:1022300007004FEAC40104D008390844AAF8000096
:1022400001E0AAF8001024B1102C04D910240025B4
:1022500003E00124FBE7002506E00920FFF72CFF3F
:10226000039948556D1CADB2A542F6D3CCE70000EA
:1022700073B57E2182B001EA40000F4D8DF8000059
:102280004FF48054002221462846FEF718F94FF4F7
:10229000FA763346012269460848FEF7DAFE3346ED
:1022A000012203A90548FEF7D4FE01222146284653
:1022B000FEF705F97FBD0000000C0140E0000020A2
:1022C000FEE700000FB4084B10B504A902AA03985A
:1022D00000F02CF8044602A9002000F058FA20462D
:1022E00010BC5DF814FB00008F2700080907090ED9
:1022F000002804DB00F1E02080F80014704700F0B3
:102300000F0000F1E02080F8141D704702E008C8BB
:10231000121F08C1002AFAD170477047002001E05F
:1023200001C1121F002AFBD1704700002DE9FF4FA9
:102330008DB00F460546002606E025280BD0DDE9C6
:102340000F1290476D1C761C28780028F5D111B02B
:102350003046BDE8F08F0024A246A1460122EC4998
:1023600000E0044315F8013F203B02FA03F0084265
:10237000F7D128782A2810D06FF02F022878A0F102
:102380003001092914D80AEB8A0102EB410144F01B
:10239000020400EB010A6D1CF0E701CF5FEA000ABE
:1023A00003D544F40054CAF1000A44F002046D1C41
:1023B00028782E2817D115F8010F44F004042A2894
:1023C0000ED06FF02F022878A0F1300109290AD829
:1023D00009EB890102EB410100EB01096D1CF2E7F9
:1023E00057F8049B6D1C28786C280FD006DC4C280D
:1023F00017D068280DD06A2814D104E0742810D0B2
:102400007A280FD10DE044F400140AE044F480145B
:1024100001E044F440146978814202D104F580144B
:102420006D1C6D1C2A786E2A1FD00CDC632A31D0FB
:1024300004DC002A8BD0582A11D1A3E0642A68D08A
:10244000692A0CD165E0732A2ED004DC6F2A73D080
:10245000702A04D19BE0752A6FD0782A6ED010467E
:10246000DDE90F129047761C50E1C4F302500228B8
:1024700006D0032809D0042801CF09D0066045E121
:1024800001CFF117C0E9006140E101CF06803DE1D5
:1024900006703BE117F8040B8DF8000000208DF862
:1024A0000100EB46012003E057F804BB4FF0FF307A
:1024B00061074FF0000102D40DE008F101018846E8
:1024C00049450FDA8045F8DB1BF808100029F4D1E4
:1024D00008E008F1010188468142FADB1BF8081088
:1024E0000029F6D1DDE90F23AAEB08008146214639
:1024F00000F036F9304400EB080604E0DDE90F1285
:102500001BF8010B9047B8F10108F7D22146484665
:10251000F7E00A21C4F302534FF0000B0891022B9D
:1025200004D001CFC117032B09D00AE0FF1D27F00B
:102530000707F7E8020108E032E01FE020E000B200
:10254000C117042B01D140B2C117031E71F1000362
:1025500007DA4FF0000CD0EB0C006CEB01012D23DF
:1025600002E0230504D52B238DF82430012303E05A
:10257000E30701D02023F7E7984658E00A2110E04E
:1025800010210EE010204FF0000B08900CE01021FD
:102590004FF0000B44F004044FF00809089103E0E9
:1025A00008214FF0000B0891C4F30253022B04D012
:1025B00001CF0021032B06D006E0FF1D27F00707FF
:1025C000F7E8020103E080B2042B00D1C0B24FF063
:1025D000000823072BD5702A07D0DDF820C08CF027
:1025E000100C5CEA0B0C05D00EE040238DF8243073
:1025F000012308E050EA010306D030238DF824308F
:102600008DF8252002239846DDF820C08CF0080CB8
:102610005CEA0B0C0BD150EA010301D1630706D52C
:1026200030238DF824304FF00108A9F10109582A10
:1026300004D038A20B9208AA0A920BE03AA2F9E75A
:102640005B46089AFDF790FD0B9B9B5C0A9A521E15
:102650000A92137050EA0102F2D10A98ADEB000021
:1026600000F1200B600702D524F4803401E04FF024
:102670000109D94502DDA9EB0B0000E0002000EBC9
:102680000B0141440890AAEB010AE00306D4DDE9FE
:102690000F232146504600F063F806444FF000092E
:1026A00008E009A911F80900DDE90F12904709F1C6
:1026B0000109761CC145F4DBE0030CD5DDE90F23ED
:1026C0002146504600F04CF8064404E0DDE90F12C4
:1026D00030209047761C0899481E08900029F5DCA8
:1026E00008E00A980A990078491C0A91DDE90F125E
:1026F0009047761CBBF10001ABF1010BF1DC2146E8
:102700005046DDE90F2300F019F806446D1C1BE666
:1027100009280100303132333435363738396162B7
:10272000636465660000000030313233343536377B
:102730003839414243444546000000002DE9F0414C
:10274000044600251E461746880404D405E0394691
:102750002020B0476D1C641EF9D52846BDE8F081E5
:102760002DE9F041044600251E469046C80301D5D8
:10277000302700E02027880404D505E0414638468C
:10278000B0476D1C641EF9D52846BDE8F0810A6883
:10279000531C0B6010707047012805D04031C8B23F
:1027A00040F0800000F030B88031C8B2FAE710B5D0
:1027B000332000F029F8322000F026F83220FDF70F
:1027C00077FD282000F020F83220FDF771FD012070
:1027D00000F01AF83220FDF76BFD062000F014F827
:1027E0003220FDF765FD0C2000F00EF83220FDF7D9
:1027F0005FFD022000F008F83220FDF759FDBDE82A
:1028000010408020AFF300801CB500F0F00141F0D3
:102810000C028DF8042041F0080100018DF805102C
:1028200040F00C018DF8061040F008008DF807000C
:1028300064200090042301AA4E210248FDF70EFFF8
:102840001CBD00008C0000201CB500F0F00141F020
:102850000D028DF8042041F0090100018DF80510EA
:1028600040F00D018DF8061040F009008DF80700CA
:1028700064200090042301AA4E210248FDF7EEFED9
:102880001CBD00008C00002010B5044602E0641C52
:10289000FFF7DAFF20780028F9D110BD0EB5FDF75B
:1028A000A9FFFFF70EFAFFF7A1F87948774900254D
:1028B00001607849C0E901154FF48041C0E9035136
:1028C00045618561C5610562FDF704FEFFF71CF9EE
:1028D000FFF7FEF86420FDF7EBFCFFF7BDFB6C484B
:1028E0000421AC30FEF702FFFFF761FF0221012057
:1028F000FFF752FF68A0FFF7C7FF4FF4FA69484699
:10290000FDF7D6FC674EDFF88881012708F1AC0897
:10291000A6F111044FF47A7A4FF4FA7B6148FFF77D
:1029200069FB88B900215F4A0846521F335C12F8E0
:1029300000C0634503D1401C491C0528F6DB05296E
:1029400022D00220A060A780B4F90400A168084347
:102950004AD0A580B0783279F1788DE807004C48EC
:102960007378327850A16438FFF7ACFC0021012065
:10297000FFF712FF46486438FFF786FFA06801287A
:1029800004D002281BD02FE0A760DCE7E088A0B9C4
:1029900000210220FFF700FF4AA0FFF775FFFDF7B7
:1029A00053FC5046FDF784FCE7806780002102203D
:1029B000FFF7F2FE47A0FFF767FFA56014E00021D4
:1029C0000220FFF7E9FE47A0FFF75EFFFDF720FCBE
:1029D00040F6B830FDF76CFC00210220A560FFF73F
:1029E000DBFE45A0FFF750FF6088A0B165800021A5
:1029F0000120FFF7D1FE45A0FFF746FF002102208E
:102A0000FFF7CAFE46A0FFF73FFFE088C0B1D8F845
:102A1000000012218163E08801287FF47FAF2088C5
:102A200098B1FDF72DFC01281DD000210220FFF7F1
:102A3000B3FE40A0FFF728FF5846FDF739FC6DE7CD
:102A4000D8F800000721816368E7FDF725FC01281D
:102A500005D000210220FFF79FFE3BA0EAE7278078
:102A6000FDF7F2FB5AE74846FDF722FC0021022061
:102A7000FFF792FE39A0FFF707FFFDF7E5FB504691
:102A8000FDF716FCE5806780258047E7005400408D
:102A90008C000020A08601002D534D41525420424D
:102AA0004F582D001100002049443A20307825303D
:102AB000325825303258253032582530325825309A
:102AC000325800004375612064616E67206D6F208D
:102AD0002020200020202020202020202020202016
:102AE00020200000546865206B686F6E6720647555
:102AF0006E672120000000002020202020202020C0
:102B000020202020202020202000000020202D53E5
:102B10004D41525420424F582D20202000000000EB
:102B200020202020202020202020202020202020A5
:102B30000000000058696E206D6F6920646F6E6739
:102B4000206375610000000058696E206D6F692078
:102B50006D6F206375612E2E0000000043756120AB
:102B600064616E67206B686F6120202000000000A8
:102B7000000000000000000001020304060708092D
:102B80000000000001020304A82B00080000002040
:102B9000280000000C230008D02B0008280000208B
:102BA000580500001C230008000000000000000081
:102BB0000000000023D9AEECB800000000000000C7
:102BC0000100000010000000000000000024F400DC
:04000005080000ED02
:00000001FF
